{"abi":[{"type":"function","name":"verifySignature","inputs":[{"name":"signer","type":"address","internalType":"address"},{"name":"messageHash","type":"bytes32","internalType":"bytes32"},{"name":"signature","type":"bytes","internalType":"bytes"}],"outputs":[{"name":"","type":"bool","internalType":"bool"}],"stateMutability":"pure"},{"type":"error","name":"ECDSAInvalidSignature","inputs":[]},{"type":"error","name":"ECDSAInvalidSignatureLength","inputs":[{"name":"length","type":"uint256","internalType":"uint256"}]},{"type":"error","name":"ECDSAInvalidSignatureS","inputs":[{"name":"s","type":"bytes32","internalType":"bytes32"}]}],"bytecode":{"object":"0x608080604052346015576102c6908161001b8239f35b600080fdfe6080600436101561000f57600080fd5b60003560e01c63017519981461002457600080fd5b3461011c57606036600319011261011c576004356001600160a01b0381169081900361011c576044359067ffffffffffffffff821161011c573660238301121561011c5781600401359167ffffffffffffffff831161012157601f8301601f19908116603f0116840167ffffffffffffffff81118582101761012157604052828452366024848301011161011c5760209360008585610109966024610100960183860137830101527f19457468657265756d205369676e6564204d6573736167653a0a333200000000600052602435601c52603c600020610137565b90939193610173565b6040516001600160a01b03909216148152f35b600080fd5b634e487b7160e01b600052604160045260246000fd5b81519190604183036101685761016192506020820151906060604084015193015160001a906101fb565b9192909190565b505060009160029190565b91909160048110156101e5578061018957509050565b6000600182036101a45763f645eedf60e01b60005260046000fd5b50600281036101c2578263fce698f760e01b60005260045260246000fd5b90916003600092146101d2575050565b6335e2f38360e21b825260045260249150fd5b634e487b7160e01b600052602160045260246000fd5b91907f7fffffffffffffffffffffffffffffff5d576e7357a4501ddfe92f46681b20a08411610284579160209360809260ff60009560405194855216868401526040830152606082015282805260015afa15610278576000516001600160a01b0381161561026c5790600090600090565b50600090600190600090565b6040513d6000823e3d90fd5b5050506000916003919056fea264697066735822122062f712c609ba6a549bf4c72b0af04d093c3f0c9dde93d9765f755f083158579264736f6c634300081c0033","linkReferences":{}},"methodIdentifiers":{"verifySignature(address,bytes32,bytes)":"01751998"},"id":35}