{"abi":[{"type":"constructor","inputs":[{"name":"_testator","type":"address","internalType":"address"},{"name":"_executor","type":"address","internalType":"address"},{"name":"_estates","type":"tuple[]","internalType":"struct Testament.Estate[]","components":[{"name":"beneficiary","type":"address","internalType":"address"},{"name":"token","type":"address","internalType":"address"},{"name":"amount","type":"uint256","internalType":"uint256"}]}],"stateMutability":"nonpayable"},{"type":"function","name":"estates","inputs":[{"name":"","type":"uint256","internalType":"uint256"}],"outputs":[{"name":"beneficiary","type":"address","internalType":"address"},{"name":"token","type":"address","internalType":"address"},{"name":"amount","type":"uint256","internalType":"uint256"}],"stateMutability":"view"},{"type":"function","name":"executed","inputs":[],"outputs":[{"name":"","type":"bool","internalType":"bool"}],"stateMutability":"view"},{"type":"function","name":"executor","inputs":[],"outputs":[{"name":"","type":"address","internalType":"address"}],"stateMutability":"view"},{"type":"function","name":"permit2","inputs":[],"outputs":[{"name":"","type":"address","internalType":"contract IPermit2"}],"stateMutability":"view"},{"type":"function","name":"signatureTransferToBeneficiaries","inputs":[{"name":"nonce","type":"uint256","internalType":"uint256"},{"name":"deadline","type":"uint256","internalType":"uint256"},{"name":"signature","type":"bytes","internalType":"bytes"}],"outputs":[],"stateMutability":"nonpayable"},{"type":"function","name":"testator","inputs":[],"outputs":[{"name":"","type":"address","internalType":"address"}],"stateMutability":"view"},{"type":"event","name":"testamentExecuted","inputs":[],"anonymous":false}],"bytecode":{"object":"0x60a0604052346104db57610dcd80380380610019816104e0565b92833981016060828203126104db5761003182610505565b61003d60208401610505565b604084015190936001600160401b0382116104db57019082601f830112156104db578151926001600160401b0384116102495761007f60208560051b016104e0565b92602084868152019160206060849702830101918183116104db57602001925b82841061047e5750506e22d473030f116ddee9f6b43ac78ba360805250506003805460ff191690556001600160a01b031692831561043957600080546001600160a01b031916851790556001600160a01b031680156103f457600180546001600160a01b0319169190911790556002549260005b84811061025f575050519168010000000000000000831161024957826002558083106101c3575b5090600260005260206000206000925b8284106101705760405161088990816105448239608051818181610229015261076b0152f35b8051805183546001600160a01b039182166001600160a01b03199182161785556020808401516001808801805492909516919093161790925560409092015160028501559401936003909201910161014a565b8060030290600382040361023357826003026003810484036102335760026000527f405787fa12a823e0f2b7631cc41b3ba8828b3321ca811111fa75cd3aa3bb5ace91820191015b818110610218575061013a565b8060006003925560006001820155600060028201550161020b565b634e487b7160e01b600052601160045260246000fd5b634e487b7160e01b600052604160045260246000fd5b6001600160a01b036102718285610519565b515116156103af57816001600160a01b0361028c8386610519565b51511614610356576001600160a01b0360206102a88386610519565b51015116156103115760406102bd8285610519565b510151156102cd57600101610113565b606460405162461bcd60e51b815260206004820152602060248201527f416d6f756e74206d7573742062652067726561746572207468616e207a65726f6044820152fd5b60405162461bcd60e51b815260206004820152601560248201527f496e76616c696420746f6b656e206164647265737300000000000000000000006044820152606490fd5b60405162461bcd60e51b815260206004820152602b60248201527f42656e656669636961727920616e64207465737461746f722063616e6e6f742060448201526a6265207468652073616d6560a81b6064820152608490fd5b60405162461bcd60e51b815260206004820152601b60248201527f496e76616c69642062656e6566696369617279206164647265737300000000006044820152606490fd5b60405162461bcd60e51b815260206004820152601f60248201527f4578656375746f7220616464726573732063616e6e6f74206265207a65726f006044820152606490fd5b60405162461bcd60e51b815260206004820152601f60248201527f5465737461746f7220616464726573732063616e6e6f74206265207a65726f006044820152606490fd5b6060848303126104db576040519060608201906001600160401b03821183831017610249576060926020926040526104b587610505565b81526104c2838801610505565b838201526040870151604082015281520193019261009f565b600080fd5b6040519190601f01601f191682016001600160401b0381118382101761024957604052565b51906001600160a01b03821682036104db57565b805182101561052d5760209160051b010190565b634e487b7160e01b600052603260045260246000fdfe608080604052600436101561001357600080fd5b600090813560e01c90816312261ee7146107575750806331a38c891461073457806357f0c0d01461070d578063867ee11a146100e7578063c34c08e5146100be5763d70f83c21461006357600080fd5b346100bb5760203660031901126100bb57600435906002548210156100bb57606061008d8361079e565b5080546001820154600290920154604080516001600160a01b03938416815293909216602084015290820152f35b80fd5b50346100bb57806003193601126100bb576001546040516001600160a01b039091168152602090f35b50346100bb5760603660031901126100bb5760043560243560443567ffffffffffffffff8111610709573660238201121561070957806004013567ffffffffffffffff8111610705573660248284010111610705576001546001600160a01b031633036106b05760ff6003541661066057831561061b57428311156105d65760025485549092906001600160a01b0316865b8481106104e9575061018a84610827565b6101976040519182610805565b848152601f196101a686610827565b01885b8181106104c6575050875b8581106104705750604051906060820182811067ffffffffffffffff82111761045c57604052815260208101968752604081019586526101f385610827565b946102016040519687610805565b808652601f1961021082610827565b01895b818110610439575050885b8181106103e55750507f00000000000000000000000000000000000000000000000000000000000000006001600160a01b031695863b156103e1579693918895939160405198899663edd9444b60e01b88526080600489015260e48801925192606060848a0152835180915260206101048a019401908a5b81811061039a575050505160a48801525160c487015260031986820301602487015260208086519283815201950190875b818110610369575050508486979484829560248a96602096604487015260031986860301606487015282855201858401378181018401859052601f01601f1916010301925af1801561035c5761034c575b600160ff1960035416176003557f861acbe556bd9b0e40ca0f5685fa1def906b2a1d87f079f16a1374bac7e9e6708180a180f35b61035591610805565b3881610318565b50604051903d90823e3d90fd5b825180516001600160a01b03168852602090810151818901528c99508b9850604090970196909201916001016102c7565b92948297999b506020919496989a50806103cb604092600195516020809160018060a01b0381511684520151910152565b0196019101908b989694928d9a98969492610296565b8880fd5b806103f160019261079e565b50828060a01b0390541660026104068361079e565b50015460405191610416836107d3565b82526020820152610427828a61083f565b52610432818961083f565b500161021e565b602090604051610448816107d3565b8c81528c8382015282828b01015201610213565b634e487b7160e01b8a52604160045260248afd5b8061047c60019261079e565b5082808060a01b039101541660026104938361079e565b500154604051916104a3836107d3565b825260208201526104b4828561083f565b526104bf818461083f565b50016101b4565b6020906040516104d5816107d3565b8b81528b83820152828286010152016101a9565b602460206104f68361079e565b50600101546040516370a0823160e01b81526004810186905292839182906001600160a01b03165afa9081156105cb57899161059a575b5060026105398361079e565b5001541161054957600101610179565b60405162461bcd60e51b8152602060048201526024808201527f5465737461746f7220646f6573206e6f74206861766520656e6f75676820746f6044820152636b656e7360e01b6064820152608490fd5b90506020813d82116105c3575b816105b460209383610805565b810103126103e157513861052d565b3d91506105a7565b6040513d8b823e3d90fd5b60405162461bcd60e51b815260206004820152601e60248201527f446561646c696e65206d75737420626520696e207468652066757475726500006044820152606490fd5b60405162461bcd60e51b815260206004820152601f60248201527f4e6f6e6365206d7573742062652067726561746572207468616e207a65726f006044820152606490fd5b60405162461bcd60e51b815260206004820152602260248201527f5472616e736665722068617320616c7265616479206265656e20657865637574604482015261195960f21b6064820152608490fd5b60405162461bcd60e51b815260206004820152602760248201527f4f6e6c79206578656375746f722063616e2065786563757465207468652074656044820152661cdd185b595b9d60ca1b6064820152608490fd5b8480fd5b8380fd5b50346100bb57806003193601126100bb57546040516001600160a01b039091168152602090f35b50346100bb57806003193601126100bb57602060ff600354166040519015158152f35b90503461079a578160031936011261079a577f00000000000000000000000000000000000000000000000000000000000000006001600160a01b03168152602090f35b5080fd5b6002548110156107bd5760026000526003602060002091020190600090565b634e487b7160e01b600052603260045260246000fd5b6040810190811067ffffffffffffffff8211176107ef57604052565b634e487b7160e01b600052604160045260246000fd5b90601f8019910116810190811067ffffffffffffffff8211176107ef57604052565b67ffffffffffffffff81116107ef5760051b60200190565b80518210156107bd5760209160051b01019056fea2646970667358221220c5eb7309cc401c8baeefa0329ca1d7c6f0c5a6131501cd8aaa78e04d169fb6cf64736f6c634300081c0033","linkReferences":{}},"methodIdentifiers":{"estates(uint256)":"d70f83c2","executed()":"31a38c89","executor()":"c34c08e5","permit2()":"12261ee7","signatureTransferToBeneficiaries(uint256,uint256,bytes)":"867ee11a","testator()":"57f0c0d0"},"id":37}