{"abi":[{"type":"constructor","inputs":[{"name":"_testatorVerifier","type":"address","internalType":"address"},{"name":"_executorVerifier","type":"address","internalType":"address"},{"name":"_decryptionVerifier","type":"address","internalType":"address"},{"name":"_executor","type":"address","internalType":"address"}],"stateMutability":"nonpayable"},{"type":"function","name":"createTestament","inputs":[{"name":"_pA","type":"uint256[2]","internalType":"uint256[2]"},{"name":"_pB","type":"uint256[2][2]","internalType":"uint256[2][2]"},{"name":"_pC","type":"uint256[2]","internalType":"uint256[2]"},{"name":"_pubSignals","type":"uint256[1]","internalType":"uint256[1]"},{"name":"_cidHash","type":"bytes32","internalType":"bytes32"},{"name":"_testator","type":"address","internalType":"address"},{"name":"_estates","type":"tuple[]","internalType":"struct Testament.Estate[]","components":[{"name":"beneficiary","type":"address","internalType":"address"},{"name":"token","type":"address","internalType":"address"},{"name":"amount","type":"uint256","internalType":"uint256"}]},{"name":"_salt","type":"uint256","internalType":"uint256"}],"outputs":[{"name":"","type":"address","internalType":"address"}],"stateMutability":"nonpayable"},{"type":"function","name":"decryptionVerifier","inputs":[],"outputs":[{"name":"","type":"address","internalType":"contract Groth16Verifier"}],"stateMutability":"view"},{"type":"function","name":"executor","inputs":[],"outputs":[{"name":"","type":"address","internalType":"address"}],"stateMutability":"view"},{"type":"function","name":"executorValidateTimes","inputs":[{"name":"_cidHash","type":"bytes32","internalType":"bytes32"}],"outputs":[{"name":"","type":"uint256","internalType":"uint256"}],"stateMutability":"view"},{"type":"function","name":"executorVerifier","inputs":[],"outputs":[{"name":"","type":"address","internalType":"contract ECDSAVerifier"}],"stateMutability":"view"},{"type":"function","name":"notarizeCID","inputs":[{"name":"_cidHash","type":"bytes32","internalType":"bytes32"},{"name":"_signature","type":"bytes","internalType":"bytes"}],"outputs":[],"stateMutability":"nonpayable"},{"type":"function","name":"predictTestament","inputs":[{"name":"_testator","type":"address","internalType":"address"},{"name":"estates","type":"tuple[]","internalType":"struct Testament.Estate[]","components":[{"name":"beneficiary","type":"address","internalType":"address"},{"name":"token","type":"address","internalType":"address"},{"name":"amount","type":"uint256","internalType":"uint256"}]},{"name":"_salt","type":"uint256","internalType":"uint256"}],"outputs":[{"name":"","type":"address","internalType":"address"}],"stateMutability":"view"},{"type":"function","name":"testaments","inputs":[{"name":"","type":"bytes32","internalType":"bytes32"}],"outputs":[{"name":"","type":"address","internalType":"address"}],"stateMutability":"view"},{"type":"function","name":"testatorValidateTimes","inputs":[{"name":"_cidHash","type":"bytes32","internalType":"bytes32"}],"outputs":[{"name":"","type":"uint256","internalType":"uint256"}],"stateMutability":"view"},{"type":"function","name":"testatorVerifier","inputs":[],"outputs":[{"name":"","type":"address","internalType":"contract Groth16Verifier"}],"stateMutability":"view"},{"type":"function","name":"uploadCID","inputs":[{"name":"_pA","type":"uint256[2]","internalType":"uint256[2]"},{"name":"_pB","type":"uint256[2][2]","internalType":"uint256[2][2]"},{"name":"_pC","type":"uint256[2]","internalType":"uint256[2]"},{"name":"_pubSignals","type":"uint256[1]","internalType":"uint256[1]"},{"name":"_cidHash","type":"bytes32","internalType":"bytes32"}],"outputs":[],"stateMutability":"nonpayable"}],"bytecode":{"object":"0x60803460bd57601f61194438819003918201601f19168301916001600160401b0383118484101760c25780849260809460405283398101031260bd5760428160d8565b90604d6020820160d8565b60616060605b6040850160d8565b930160d8565b600080546001600160a01b03199081166001600160a01b03968716179091556001805482169386169390931790925560028054831693851693909317909255600380549091169190921617905560405161185890816100ec8239f35b600080fd5b634e487b7160e01b600052604160045260246000fd5b51906001600160a01b038216820360bd5756fe608080604052600436101561001357600080fd5b60003560e01c90816325df2aaa14610718575080632e5982ea1461045f57806333a1d8fb146104365780633f619d9a146103f55780634a9644dd146103b4578063c34c08e51461038b578063c6fcaf1f14610357578063cc50108f146101fc578063cf4e80d81461012c578063eccf0c4b146100c65763f1f26fd91461009857600080fd5b346100c15760003660031901126100c1576001546040516001600160a01b039091168152602090f35b600080fd5b346100c15760603660031901126100c1576004356001600160a01b03811681036100c15760243567ffffffffffffffff81116100c15760209161011061011a923690600401610750565b906044359261097d565b6040516001600160a01b039091168152f35b346100c1576101403660031901126100c157366044116100c1573660c4116100c15736610104116100c15736610124116100c1576000546040516343753b4d60e01b81529060209082906001600160a01b0316818061018d60048201610807565b03915afa80156101f0576101a9916000916101c1575b50610854565b61012435600052600460205242604060002055600080f35b6101e3915060203d6020116101e9575b6101db8183610781565b8101906107ef565b826101a3565b503d6101d1565b6040513d6000823e3d90fd5b346100c15760403660031901126100c15760043560243567ffffffffffffffff81116100c157366023820112156100c157806004013567ffffffffffffffff81116103415760405191610259601f8301601f191660200184610781565b818352602083019236602484840101116100c1576000602084819560246102e99601883783010152846000526004835261029960406000205415156107a3565b60018060a01b036001541690608460018060a01b036003541660405196879586948593622ea33360e31b855260048501528a6024850152606060448501525180928160648601528585019061095a565b601f01601f191681010301915afa80156101f05761030e916000916103225750610854565b600052600560205242604060002055600080f35b61033b915060203d6020116101e9576101db8183610781565b836101a3565b634e487b7160e01b600052604160045260246000fd5b346100c15760203660031901126100c1576004356000526006602052602060018060a01b0360406000205416604051908152f35b346100c15760003660031901126100c1576003546040516001600160a01b039091168152602090f35b346100c15760203660031901126100c1576103da60018060a01b0360035416331461090e565b60043560005260046020526020604060002054604051908152f35b346100c15760203660031901126100c15761041b60018060a01b0360035416331461090e565b60043560005260056020526020604060002054604051908152f35b346100c15760003660031901126100c1576002546040516001600160a01b039091168152602090f35b346100c1576101a03660031901126100c157366044116100c1573660c4116100c15736610104116100c15736610124116100c15761012435610144356001600160a01b03811681036100c1576101643567ffffffffffffffff81116100c1576104cc903690600401610750565b610184929192358460005260046020526104ec60406000205415156107a3565b84600052600560205260406000205485600052600460205260406000205410156106d3576002546040516343753b4d60e01b81529060209082906001600160a01b0316818061053d60048201610807565b03915afa80156101f057610558916000916106b45750610854565b6000858152600660205260409020546001600160a01b031661066f57600354604051610dcd91828201906001600160a01b031667ffffffffffffffff8211838310176103415785886105b3928986958998610a568839610890565b03906000f59182156101f0576001600160a01b039283169492936105d7939061097d565b16810361060c57602091600052600682526040600020816bffffffffffffffffffffffff60a01b825416179055604051908152f35b60405162461bcd60e51b815260206004820152603560248201527f54657374616d656e74206164647265737320696e636f6e73697374656e7420776044820152746974682074686520707265696463746564206f6e6560581b6064820152608490fd5b60405162461bcd60e51b815260206004820152601860248201527f54657374616d656e7420616c72656164792065786973747300000000000000006044820152606490fd5b6106cd915060203d6020116101e9576101db8183610781565b876101a3565b60405162461bcd60e51b815260206004820152601d60248201527f434944206e6f742076616c696461746564206279206578656375746f720000006044820152606490fd5b346100c15760003660031901126100c1576000546001600160a01b03168152602090f35b35906001600160a01b03821682036100c157565b9181601f840112156100c15782359167ffffffffffffffff83116100c157602080850194606085020101116100c157565b90601f8019910116810190811067ffffffffffffffff82111761034157604052565b156107aa57565b60405162461bcd60e51b815260206004820152601d60248201527f434944206e6f742076616c696461746564206279207465737461746f720000006044820152606490fd5b908160209103126100c1575180151581036100c15790565b9061012082019160406004823760446000604083015b6002821061083e5750505061010461010082604060c460c060209601370137565b604080828186600195370193019101909161081d565b1561085b57565b60405162461bcd60e51b815260206004820152600d60248201526c24b73b30b634b210383937b7b360991b6044820152606490fd5b6001600160a01b0391821681529116602082015260606040820181905281018390526080019160005b8181106108c65750505090565b909192606080600192838060a01b036108de8861073c565b168152838060a01b036108f36020890161073c565b166020820152604087810135908201520194019291016108b9565b1561091557565b60405162461bcd60e51b815260206004820152601860248201527f43616c6c6572206973206e6f7420617574686f72697a656400000000000000006044820152606490fd5b60005b83811061096d5750506000910152565b818101518382015260200161095d565b6109ff91926020610a0f92610dcd956109d86040519461099f858a0187610781565b88865284860198610a568a396109ca60018060a01b0360035416916040519485938885019788610890565b03601f198101835282610781565b6040519586946109f0858701998a925192839161095a565b8501915180938584019061095a565b010103601f198101835282610781565b5190209060405191602083019160ff60f81b83523060601b60218501526035840152605583015260558252610a45607583610781565b905190206001600160a01b03169056fe60a0604052346104db57610dcd80380380610019816104e0565b92833981016060828203126104db5761003182610505565b61003d60208401610505565b604084015190936001600160401b0382116104db57019082601f830112156104db578151926001600160401b0384116102495761007f60208560051b016104e0565b92602084868152019160206060849702830101918183116104db57602001925b82841061047e5750506e22d473030f116ddee9f6b43ac78ba360805250506003805460ff191690556001600160a01b031692831561043957600080546001600160a01b031916851790556001600160a01b031680156103f457600180546001600160a01b0319169190911790556002549260005b84811061025f575050519168010000000000000000831161024957826002558083106101c3575b5090600260005260206000206000925b8284106101705760405161088990816105448239608051818181610229015261076b0152f35b8051805183546001600160a01b039182166001600160a01b03199182161785556020808401516001808801805492909516919093161790925560409092015160028501559401936003909201910161014a565b8060030290600382040361023357826003026003810484036102335760026000527f405787fa12a823e0f2b7631cc41b3ba8828b3321ca811111fa75cd3aa3bb5ace91820191015b818110610218575061013a565b8060006003925560006001820155600060028201550161020b565b634e487b7160e01b600052601160045260246000fd5b634e487b7160e01b600052604160045260246000fd5b6001600160a01b036102718285610519565b515116156103af57816001600160a01b0361028c8386610519565b51511614610356576001600160a01b0360206102a88386610519565b51015116156103115760406102bd8285610519565b510151156102cd57600101610113565b606460405162461bcd60e51b815260206004820152602060248201527f416d6f756e74206d7573742062652067726561746572207468616e207a65726f6044820152fd5b60405162461bcd60e51b815260206004820152601560248201527f496e76616c696420746f6b656e206164647265737300000000000000000000006044820152606490fd5b60405162461bcd60e51b815260206004820152602b60248201527f42656e656669636961727920616e64207465737461746f722063616e6e6f742060448201526a6265207468652073616d6560a81b6064820152608490fd5b60405162461bcd60e51b815260206004820152601b60248201527f496e76616c69642062656e6566696369617279206164647265737300000000006044820152606490fd5b60405162461bcd60e51b815260206004820152601f60248201527f4578656375746f7220616464726573732063616e6e6f74206265207a65726f006044820152606490fd5b60405162461bcd60e51b815260206004820152601f60248201527f5465737461746f7220616464726573732063616e6e6f74206265207a65726f006044820152606490fd5b6060848303126104db576040519060608201906001600160401b03821183831017610249576060926020926040526104b587610505565b81526104c2838801610505565b838201526040870151604082015281520193019261009f565b600080fd5b6040519190601f01601f191682016001600160401b0381118382101761024957604052565b51906001600160a01b03821682036104db57565b805182101561052d5760209160051b010190565b634e487b7160e01b600052603260045260246000fdfe608080604052600436101561001357600080fd5b600090813560e01c90816312261ee7146107575750806331a38c891461073457806357f0c0d01461070d578063867ee11a146100e7578063c34c08e5146100be5763d70f83c21461006357600080fd5b346100bb5760203660031901126100bb57600435906002548210156100bb57606061008d8361079e565b5080546001820154600290920154604080516001600160a01b03938416815293909216602084015290820152f35b80fd5b50346100bb57806003193601126100bb576001546040516001600160a01b039091168152602090f35b50346100bb5760603660031901126100bb5760043560243560443567ffffffffffffffff8111610709573660238201121561070957806004013567ffffffffffffffff8111610705573660248284010111610705576001546001600160a01b031633036106b05760ff6003541661066057831561061b57428311156105d65760025485549092906001600160a01b0316865b8481106104e9575061018a84610827565b6101976040519182610805565b848152601f196101a686610827565b01885b8181106104c6575050875b8581106104705750604051906060820182811067ffffffffffffffff82111761045c57604052815260208101968752604081019586526101f385610827565b946102016040519687610805565b808652601f1961021082610827565b01895b818110610439575050885b8181106103e55750507f00000000000000000000000000000000000000000000000000000000000000006001600160a01b031695863b156103e1579693918895939160405198899663edd9444b60e01b88526080600489015260e48801925192606060848a0152835180915260206101048a019401908a5b81811061039a575050505160a48801525160c487015260031986820301602487015260208086519283815201950190875b818110610369575050508486979484829560248a96602096604487015260031986860301606487015282855201858401378181018401859052601f01601f1916010301925af1801561035c5761034c575b600160ff1960035416176003557f861acbe556bd9b0e40ca0f5685fa1def906b2a1d87f079f16a1374bac7e9e6708180a180f35b61035591610805565b3881610318565b50604051903d90823e3d90fd5b825180516001600160a01b03168852602090810151818901528c99508b9850604090970196909201916001016102c7565b92948297999b506020919496989a50806103cb604092600195516020809160018060a01b0381511684520151910152565b0196019101908b989694928d9a98969492610296565b8880fd5b806103f160019261079e565b50828060a01b0390541660026104068361079e565b50015460405191610416836107d3565b82526020820152610427828a61083f565b52610432818961083f565b500161021e565b602090604051610448816107d3565b8c81528c8382015282828b01015201610213565b634e487b7160e01b8a52604160045260248afd5b8061047c60019261079e565b5082808060a01b039101541660026104938361079e565b500154604051916104a3836107d3565b825260208201526104b4828561083f565b526104bf818461083f565b50016101b4565b6020906040516104d5816107d3565b8b81528b83820152828286010152016101a9565b602460206104f68361079e565b50600101546040516370a0823160e01b81526004810186905292839182906001600160a01b03165afa9081156105cb57899161059a575b5060026105398361079e565b5001541161054957600101610179565b60405162461bcd60e51b8152602060048201526024808201527f5465737461746f7220646f6573206e6f74206861766520656e6f75676820746f6044820152636b656e7360e01b6064820152608490fd5b90506020813d82116105c3575b816105b460209383610805565b810103126103e157513861052d565b3d91506105a7565b6040513d8b823e3d90fd5b60405162461bcd60e51b815260206004820152601e60248201527f446561646c696e65206d75737420626520696e207468652066757475726500006044820152606490fd5b60405162461bcd60e51b815260206004820152601f60248201527f4e6f6e6365206d7573742062652067726561746572207468616e207a65726f006044820152606490fd5b60405162461bcd60e51b815260206004820152602260248201527f5472616e736665722068617320616c7265616479206265656e20657865637574604482015261195960f21b6064820152608490fd5b60405162461bcd60e51b815260206004820152602760248201527f4f6e6c79206578656375746f722063616e2065786563757465207468652074656044820152661cdd185b595b9d60ca1b6064820152608490fd5b8480fd5b8380fd5b50346100bb57806003193601126100bb57546040516001600160a01b039091168152602090f35b50346100bb57806003193601126100bb57602060ff600354166040519015158152f35b90503461079a578160031936011261079a577f00000000000000000000000000000000000000000000000000000000000000006001600160a01b03168152602090f35b5080fd5b6002548110156107bd5760026000526003602060002091020190600090565b634e487b7160e01b600052603260045260246000fd5b6040810190811067ffffffffffffffff8211176107ef57604052565b634e487b7160e01b600052604160045260246000fd5b90601f8019910116810190811067ffffffffffffffff8211176107ef57604052565b67ffffffffffffffff81116107ef5760051b60200190565b80518210156107bd5760209160051b01019056fea2646970667358221220c5eb7309cc401c8baeefa0329ca1d7c6f0c5a6131501cd8aaa78e04d169fb6cf64736f6c634300081c0033a264697066735822122078f1506aa21a0db30fc9d6462175ea341d044e91b9f70219e24e435119127c7464736f6c634300081c0033","linkReferences":{}},"methodIdentifiers":{"createTestament(uint256[2],uint256[2][2],uint256[2],uint256[1],bytes32,address,(address,address,uint256)[],uint256)":"2e5982ea","decryptionVerifier()":"33a1d8fb","executor()":"c34c08e5","executorValidateTimes(bytes32)":"3f619d9a","executorVerifier()":"f1f26fd9","notarizeCID(bytes32,bytes)":"cc50108f","predictTestament(address,(address,address,uint256)[],uint256)":"eccf0c4b","testaments(bytes32)":"c6fcaf1f","testatorValidateTimes(bytes32)":"4a9644dd","testatorVerifier()":"25df2aaa","uploadCID(uint256[2],uint256[2][2],uint256[2],uint256[1],bytes32)":"cf4e80d8"},"id":38}